S01B00002E2F44656275672F666C6970666C6F705F6972712E7331395F
S315200000000248854600F068F8FEE7C04600C0012099
S3152000001080B500AF074B1B8801339AB2054B1A8077
S31520000020054B054A526908210A435A61C046BD4616
S3152000003080BDC046F8000020003C014080B500AFDE
S31520000040164B164A12688021C9010A431A60144BBE
S31520000050134A92681205120D9A60114B104A926843
S315200000608021C9010A439A600E4B0E4A1268082164
S315200000700A431A600B4B0B4AD26808210A43DA60FE
S31520000080094B0A4A5A660A4B094A12688021890096
S315200000900A431A60C046BD4680BDC0464438024069
S315200000A000380140003C014000C001201100002022
S315200000B000E100E080B500AF044B054A1A60054B0D
S315200000C0AA22D2011A60C046BD4680BD000C02405D
S315200000D0555500000010024080B500AFFFF7EAFF3B
S315200000E0FFF7ACFF024A034B1B88DBB21375F9E717
S311200000F0000C0240F80000200000000078
S70520000000DA
