S01500002E2F44656275672F4B65797061642E7331390E
S315200000000248854600F020F9FEE7C04600C00120E0
S3152000001080B500AF0C4B0D4A1A600D4B0C4A126886
S31520000020FF210A401A600B4B0A4A1268AA210904CA
S315200000300A431A60084B084A126818210A431A60B4
S31520000040C046BD4680BDC046000C024055550055F1
S31520000050040C02400C0C02403038024080B582B0BD
S3152000006000AF78607B68042B19D87B689A000E4B0A
S31520000070D3181B689F460D4B10221A700FE00B4BAE
S3152000008020221A700BE0094B40221A7007E0074B1A
S3152000009080221A7003E0054B00221A70C046C04623
S315200000A0BD4602B080BDC04670020020150C02403D
S315200000B080B582B000AF124AFB1D12781A70FB1D64
S315200000C01B780822134001D0042314E0FB1D1B7863
S315200000D00422134001D003230DE0FB1D1B780222CE
S315200000E0134001D0022306E0FB1D1B78012213409A
S315200000F001D00123FFE71800BD4602B080BDC046EF
S31520000100110C024080B582B000AF00237B60002333
S315200001103B6001237B6016E07B681800FFF79EFF9B
S31520000120FFF7C6FF03003B603B68002B08D07B68C7
S31520000130013B9A003B68013BD318074AD35C06E093
S315200001407B6801337B607B68042BE5DDFF23180089
S31520000150BD4602B080BDC0466002002080B582B098
S3152000016000AF0200FB1D1A70FB1D1B78082B40D028
S3152000017010DC032B29D005DC012B1ED021DC002B23
S3152000018017D05AE0052B28D023DB062B29D0072BA6
S315200001902BD052E00C2B3CD003DC0A2B31D034DCA4
S315200001A02BE00E2B3DD038DB0F2B3ED0FF2B40D043
S315200001B043E0244B3F221A703FE0224B06221A705E
S315200001C03BE0204B5B221A7037E01E4B4F221A7001
S315200001D033E01C4B66221A702FE01A4B6D221A70E0
S315200001E02BE0184B7D221A7027E0164B07221A7037
S315200001F023E0144B7F221A701FE0124B67221A70DD
S315200002001BE0104B77221A7017E00E4B7C221A70D7
S3152000021013E00C4B39221A700FE00A4B5E221A703B
S315200002200BE0084B79221A7007E0064B71221A70F0
S3152000023003E0044B00221A70C046C046BD4602B0F9
S3152000024080BDC046140C024080B500AFFFF7E0FE2B
S31520000250FFF758FF03001800FFF780FFF8E7C046B6
S315200002600102030A0405060B0708090C0E000F0DF0
S3152000027096000020760000207E00002086000020C8
S309200002808E000020A6
S70520000000DA
