S01400002E2F44656275672F46696E616C2E73313983
S315200000000248854600F004F8FEE7C04600C00120FD
S3152000001090B583B000AF00F00FF8FC1D00F020F87B
S3152000002003002370FB1D1B78002BF6D0FB1D1B78CD
S31520000030180000F029F8F0E780B500AF054B064A16
S315200000401A81044B00221A82024B044A9A81C04626
S31520000050BD4680BD00100140D90200000C200000E2
S3152000006080B500AF074B1B889BB21A002023134094
S3152000007001D1002303E0034B9B889BB2DBB218001F
S31520000080BD4680BD0010014080B582B000AF0200A1
S31520000090FB1D1A700C4AFB1D1B789BB2938000E057
S315200000A0C046094B1B889BB21A0080231340F7D009
S315200000B0FB1D1B780A2B02D10D20FFF7E5FFC0465A
S315200000C0BD4602B080BDC0460010014090B583B049
S315200000D000AFFC1DFFF7C4FF03002370FB1D1B7838
S315200000E0002BF6D0FB1D1B781800BD4603B090BD33
S70520000000DA
