S01400002E2F44656275672F44656C61792E7331397E
S315200000000248854600F064F8FEE7C04600C001209D
S3152000001080B500AF054B064A1A60064B054A1268A2
S3152000002018210A431A60C046BD4680BD000C024016
S31520000030555500003038024080B500AF0C4B0022E9
S315200000401A600C4B2A221A600B4B00221A60084BAE
S3152000005005221A60C046064B1A6880235B021340AD
S31520000060F9D0034B00221A60C046BD4680BDC0466B
S3152000007010E000E014E000E018E000E080B584B075
S3152000008000AF78600023FB6004E0FFF7D5FFFB6834
S315200000900133FB607B689A00FB689A42F5D2C04622
S315200000A0BD4604B080BDC04680B582B000AF786042
S315200000B004E0FA239B001800FFF7E0FF7B685A1E36
S315200000C07A60002BF5D1C046BD4602B080BDC04641
S315200000D080B500AFFFF79CFF064BFF221A70052064
S315200000E0FFF7E2FF034B00221A700520FFF7DCFF23
S311200000F0F2E7C046140C0240E8030000B2
S70520000000DA
