S01900002E2F44656275672F55534152545F746573742E733139BA
S315200000000248854600F052F8FEE7C04600C00120AF
S3152000001080B500AF054BD9221A71044B00221A7203
S31520000020024B0C229A71C046BD4680BD001001408D
S3152000003080B500AF074B1B78DBB21A002023134094
S3152000004001D1002302E0034B9B78DBB21800BD46AA
S3152000005080BDC0460010014080B582B000AF0200CE
S31520000060FB1D1A70C046074B1B78DBB25BB2002B18
S31520000070F9DA044AFB1D1B789370C046BD4602B0D0
S3152000008080BDC0460010014090B583B000AFFC1D76
S31520000090FFF7CEFF03002370FB1D1B78002BF6D045
S315200000A0FB1D1B781800BD4603B090BD90B583B0EC
S315200000B000AFFFF7ADFFFC1DFFF7BAFF030023706B
S315200000C0FB1D1B78002BF6D0FB1D1B781800FFF7B5
S309200000D0C3FFF0E76D
S70520000000DA
