S01900002E2F44656275672F55534152545F746573742E733139BA
S315200000000248854600F056F8FEE7C04600C00120AB
S3152000001080B500AF054BD9221A71044B00221A7203
S31520000020024B0C229A71C046BD4680BD001001408D
S3152000003080B582B000AF094B1B78DBB21A002023B3
S31520000040134001D1002305E0044AFB1D92781A7063
S31520000050FB1D1B781800BD4602B080BD0010014074
S3152000006080B582B000AF0200FB1D1A70C046074B58
S315200000701B78DBB25BB2002BF9DA044AFB1D1B7836
S315200000809370C046BD4602B080BDC04600100140F8
S3152000009090B583B000AFFC1DFFF7CAFF03002370A5
S315200000A0FB1D1B78002BF6D0FB1D1B781800BD46C8
S315200000B003B090BD90B583B000AFFFF7A9FFFC1D3C
S315200000C0FFF7E6FF03002370FB1D1B781800FFF7E0
S309200000D0C7FFF4E765
S70520000000DA
