S01900002E2F44656275672F41534349495F446973702E73313910
S315200000000248854600F0B2F9FEE7C04600C001204E
S3152000001080B500AF044B054A1A60054B034A1A60A7
S31520000020C046BD4680BDC0460010024055555555B8
S315200000300810024080B500AF0C4B00221A600C4B12
S315200000402A221A600B4B00221A60084B05221A60DE
S31520000050C046064B1A6880235B021340F9D0034B37
S3152000006000221A60C046BD4680BDC04610E000E0B2
S3152000007014E000E018E000E080B584B000AF7860BE
S315200000800023FB6004E0FFF7D5FFFB680133FB602C
S315200000907B689A00FB689A42F5D2C046BD4604B0FA
S315200000A080BDC04680B582B000AF786002E00220F5
S315200000B0FFF7E2FF7B685A1E7A60002BF7D1C04615
S315200000C0BD4602B080BDC04680B582B000AF0200FA
S315200000D0FB1D1A700749074B1B78DAB2FB1D1B78EC
S315200000E01343DBB204221343DBB20B70C046BD467A
S315200000F002B080BD1410024080B582B000AF02006D
S31520000100FB1D1A700A490A4B1B78DBB25BB2FA1D3B
S31520000110127852B2D24352B20420024352B2134052
S315200001205BB2DBB20B70C046BD4602B080BDC04696
S315200001301410024080B582B000AF0200FB1D1A7079
S315200001404020FFF7C1FF064AFB1D1B781370FFF7FF
S3152000015071FF4020FFF7D0FFC046BD4602B080BDEC
S315200001601510024080B582B000AF0200FB1D1A7048
S315200001700120FFF7C1FF0220FFF7BEFFFB1D1B7802
S315200001801800FFF7D7FFC046BD4602B080BDC04667
S3152000019080B582B000AF0200FB1D1A700120FFF768
S315200001A093FF0220FFF7A8FFFB1D1B781800FFF71F
S315200001B0C1FFC046BD4602B080BDC04680B582B0F4
S315200001C000AF4020FFF780FFFFF734FFFFF732FF35
S315200001D0064AFB1D12781A704020FFF78DFFFB1D83
S315200001E01B781800BD4602B080BDC04611100240E3
S315200001F090B583B000AF0E4B0D4A12681204120C54
S315200002001A600120FFF778FF0220FFF75DFFFC1D33
S31520000210FFF7D4FF03002370054B054A12680549F2
S315200002200A431A60FB1D1B781800BD4603B090BD1B
S31520000230001002400000555590B583B000AF0D4B1D
S315200002400C4A12681204120C1A600120FFF73CFFB8
S315200002500220FFF739FFFC1DFFF7B0FF03002370D4
S31520000260044B054A1A60FB1D1B781800BD4603B0D7
S3152000027090BDC046001002405555555580B582B0F8
S3152000028000AF02003960FB1D1A70C046FFF7B0FFB1
S3152000029003005BB2002BF9DB0820FFF7EDFEFB1D08
S315200002A01B781800FFF75EFF3B681800FFF7E4FE97
S315200002B0C046BD4602B080BD80B500AF0D4B0D4A8D
S315200002C0126818210A431A6027213820FFF7D6FF23
S315200002D027210E20FFF7D2FF074B19000120FFF739
S315200002E0CDFF054B19000020FFF7C8FFC046BD46CD
S315200002F080BDC04630380240FA05000080B582B085
S3152000030000AF0200FB1D1A70C046FFF771FF030005
S315200003105BB2002BF9DB0820FFF7AEFEFB1D1B7836
S315200003201800FFF735FF2720FFF7A6FEC046BD467B
S3152000033002B080BD80B584B000AF786039607B683C
S31520000340013BFB603B68022B02D1FB684033FB601C
S31520000350FB68DBB2802252421343DBB21800FFF760
S3152000036001FFC046BD4604B080BDC04690B587B0EB
S3152000037000AF0C23FB18194A1168196012791A71FB
S315200003803B00174A13CA13C3FFF742FEFFF794FF39
S3152000039001210120FFF7CEFF0C23FB187B6106E02D
S315200003A07B695A1C7A611B781800FFF7A7FF7B69C7
S315200003B01B78002BF4D102210120FFF7BBFF3B0065
S315200003C07B6106E07B695A1C7A611B781800FFF76F
S315200003D095FF7B691B78002BF4D1FEE7E80300200C
S315200003E0F0030020E803000048656A2100000000B1
S311200003F04C756C6C652042756C6C6500C9
S70520000000DA
