S02200002E2F44656275672F677261706869636173636969646973706C61792E73313982
S315200000000248854600F046FAFEE7C04600C00120B9
S3152000001080B500AF044B054A1A60034B034A9A6029
S31520000020C046BD4680BDC0460010024055555555B8
S3152000003080B500AF0C4B00221A600C4B2A221A60A6
S315200000400B4B00221A60084B05221A60C046064B4D
S315200000501A6880235B021340F9D0034B00221A60F2
S31520000060C046BD4680BDC04610E000E014E000E07A
S3152000007018E000E080B500AF0C4B00221A600C4B54
S3152000008054221A600B4B00221A60084B05221A6074
S31520000090C046064B1A6880235B021340F9D0034BF7
S315200000A000221A60C046BD4680BDC04610E000E072
S315200000B014E000E018E000E080B584B000AF78607E
S315200000C00023FB6004E0FFF7B3FFFB680133FB600E
S315200000D07B689A00FB689A42F5D2C046BD4604B0BA
S315200000E080BDC04680B582B000AF786002E00220B5
S315200000F0FFF7E2FF7B685A1E7A60002BF7D1C046D5
S31520000100BD4602B080BDC04680B582B000AF0200B9
S31520000110FB1D1A700A4A0A4B1B7DDBB204218B4356
S31520000120DBB213750649064B1B7DDAB2FB1D1B7825
S315200001301343DBB20B75C046BD4602B080BDC04638
S315200001400010024080B582B000AF0200FB1D1A707D
S315200001500C4A0C4B1B7DDBB204218B43DBB213759F
S315200001600849084B1B7DDBB25BB2FA1D127852B2EE
S31520000170D24352B213405BB2DBB20B75C046BD46CA
S3152000018002B080BD0010024080B500AF4020FFF7CE
S31520000190BBFF0F4B0F4A1A600120FFF7D3FF022047
S315200001A0FFF7B2FFFFF766FF4020FFF7ADFFFFF72F
S315200001B061FF4020FFF7A8FFFFF75CFF044B5B7C45
S315200001C0DBB25BB2002BEFDBC046BD4680BDC0462E
S315200001D0001002405555000080B582B000AF0200E5
S315200001E0FB1D1A70FB1D1B78082B0FD002DC002B81
S315200001F005D01FE0102B10D0182B15D01AE0102098
S31520000200FFF7A0FF0820FFF79DFF13E01020FFF760
S3152000021099FF0820FFF778FF0CE00820FFF792FFF0
S315200002201020FFF771FF05E00820FFF76DFF102073
S31520000230FFF76AFFC046BD4602B080BD80B584B0D8
S3152000024000AF0200FB1D1A704020FFF75DFF1B4B1D
S315200002501B4A1A600320FFF757FFFB1D1B78180067
S31520000260FFF7BAFFFFF706FF4020FFF74DFFFFF726
S3152000027001FF124A0F23FB18527C1A704020FFF709
S3152000028061FF0E4B0F4A1A60FB1D1B78082B05D108
S315200002900820FFF7A1FFFFF777FF08E0FB1D1B787B
S315200002A0102B04D11020FFF797FFFFF76DFF0F23C8
S315200002B0FB181B781800BD4604B080BD0010024014
S315200002C0555500005555555580B582B000AF0200F2
S315200002D0FB1D1A70BB1D0A1C1A701B4AFB1D1B78BE
S315200002E05375BB1D1B781800FFF776FFFFF7C2FE7C
S315200002F04020FFF709FFFFF7BDFE4020FFF722FF52
S31520000300BB1D1B780822134006D0BB1D1B78180086
S31520000310FFF762FFFFF738FFBB1D1B781022134043
S3152000032004D01020FFF758FFFFF72EFF064B0022C0
S315200003305A754020FFF7E8FE0020FFF74DFFC04624
S31520000340BD4602B080BDC0460010024080B582B0D6
S3152000035000AF0200FB1D1A70BB1D0A1C1A7040203C
S31520000360FFF7F0FEBB1D1B781800FFF735FF0320B3
S31520000370FFF7E8FEBB1D1A78FB1D1B78110018003D
S31520000380FFF7A2FFC046BD4602B080BD80B582B051
S3152000039000AF0200FB1D1A70BB1D0A1C1A704020FC
S315200003A0FFF7D0FEBB1D1B781800FFF715FF0120B5
S315200003B0FFF7AAFE0220FFF7C5FEBB1D1A78FB1D1C
S315200003C01B7811001800FFF77FFFC046BD4602B01C
S315200003D080BDC04680B582B000AFFB1D00221A70DA
S315200003E023E0FB1D1B78482252421343DBB218211F
S315200003F01800FFF7ABFF18214020FFF7A7FF3B1D92
S3152000040000221A8008E018210020FFF7BFFF3B1DBD
S315200004101A883B1D01321A803B1D1B883F2BF2D9BF
S31520000420FB1D1A78FB1D01321A70FB1D1B78072B4A
S31520000430D7D9C046BD4602B080BDC04680B500AF04
S315200004404020FFF761FE0A20FFF736FE7820FFF7EF
S3152000045079FE1E20FFF746FE2020FFF755FE1821C5
S315200004603E20FFF773FF18213F20FFF76FFF18216B
S31520000470C020FFF76BFF18214020FFF767FF1821E8
S31520000480B820FFF763FF0020FFF7A6FEC046BD4653
S3152000049080BDC04680B500AFFFF7BAFDFFF7CEFF9F
S315200004A0FFF798FF18214A20FFF750FF1821B9209F
S315200004B0FFF74CFF1821FF20FFF768FFFFF764FEC8
S30D200004C0C046BD4680BDC046C2
S70520000000DA
