S01700002E2F44656275672F6175746F706F6E672E733139FD
S315200000000248854600F02AF8FEE7C04600C00120D7
S3152000001080B500AF0D4B0E4A1A600C4B0C4A9A6005
S315200000200C4B0D4A1A600B4A0A4B9B889BB2FF2148
S315200000300B409BB29380074B064AD268AA2109043B
S315200000400A43DA60C046BD4680BDC0460010024065
S3152000005055555555000C02405555005590B583B061
S3152000006000AF234B7B60FFF7D3FF00F04DFAFC1C5B
S3152000007000F076FC03002370FB1C1B78042B10D0A9
S3152000008002DC022B05D022E0062B19D0082B10D03B
S315200000901DE07B681B6A012252427868002198473E
S315200000A01CE07B681B6A012251427868002298472F
S315200000B014E07B681B6A78680122002198470DE0CE
S315200000C07B681B6A786800220121984706E07B68D6
S315200000D01B6A7868002200219847C0467B68DB6946
S315200000E07A6810009847282000F05EF8BFE7C046DF
S315200000F0EC09002080B500AF0C4B00221A600C4B97
S315200001002A221A600B4B00221A60084B05221A601D
S31520000110C046064B1A6880235B021340F9D0034B76
S3152000012000221A60C046BD4680BDC04610E000E0F1
S3152000013014E000E018E000E080B500AF0C4B002290
S315200001401A600C4B54221A600B4B00221A60084B83
S3152000015005221A60C046064B1A6880235B021340AC
S31520000160F9D0034B00221A60C046BD4680BDC0466A
S3152000017010E000E014E000E018E000E080B584B074
S3152000018000AF78600023FB6004E0FFF7B3FFFB6855
S315200001900133FB607B689A00FB689A42F5D2C04621
S315200001A0BD4604B080BDC04680B582B000AF786041
S315200001B002E00220FFF7E2FF7B685A1E7A60002BDE
S315200001C0F7D1C046BD4602B080BDC04680B582B0DC
S315200001D000AF0200FB1D1A700A4A0A4B1B7DDBB2D8
S315200001E004218B43DBB213750649064B1B7DDAB21D
S315200001F0FB1D1B781343DBB20B75C046BD4602B010
S3152000020080BDC0460010024080B582B000AF02001B
S31520000210FB1D1A700C4A0C4B1B7DDBB204218B4351
S31520000220DBB213750849084B1B7DDBB25BB2FA1DA6
S31520000230127852B2D24352B213405BB2DBB20B7584
S31520000240C046BD4602B080BD0010024080B500AF5A
S315200002504020FFF7BBFF104B104A1A600120FFF722
S31520000260D3FF0220FFF7B2FFFFF766FF4020FFF71C
S31520000270ADFFFFF761FF4020FFF7A8FFFFF75CFF08
S31520000280054B5B7CDBB25BB2002BEFDB024B044AF7
S315200002901A60C046BD4680BD00100240555500007C
S315200002A05555555580B582B000AF0200FB1D1A701A
S315200002B0FB1D1B78082B0FD002DC002B05D01FE07E
S315200002C0102B10D0182B15D01AE01020FFF79CFF0A
S315200002D00820FFF799FF13E01020FFF795FF08206D
S315200002E0FFF774FF0CE00820FFF78EFF1020FFF7C2
S315200002F06DFF05E00820FFF769FF1020FFF766FF76
S31520000300C046BD4602B080BD80B584B000AF0200B5
S31520000310FB1D1A704020FFF759FF1B4B1B4A1A6022
S315200003200320FFF753FFFB1D1B781800FFF7BAFFCA
S31520000330FFF702FF4020FFF749FFFFF7FDFE124AB5
S315200003400F23FB18527C1A704020FFF75DFF0E4BDF
S315200003500F4A1A60FB1D1B78082B05D10820FFF7D2
S31520000360A1FFFFF773FF08E0FB1D1B78102B04D1BC
S315200003701020FFF797FFFFF769FF0F23FB181B7865
S315200003801800BD4604B080BD00100240555500003F
S315200003905555555580B582B000AF0200FB1D1A7029
S315200003A0BB1D0A1C1A701B4AFB1D1B785375BB1DEF
S315200003B01B781800FFF776FFFFF7BEFE4020FFF7F9
S315200003C005FFFFF7B9FE4020FFF71EFFBB1D1B7878
S315200003D00822134006D0BB1D1B781800FFF762FFCA
S315200003E0FFF734FFBB1D1B781022134004D01020CA
S315200003F0FFF758FFFFF72AFF064B00225A754020C9
S31520000400FFF7E4FE0020FFF74DFFC046BD4602B0D1
S3152000041080BDC0460010024080B582B000AF020009
S31520000420FB1D1A70BB1D0A1C1A704020FFF7ECFE3C
S31520000430BB1D1B781800FFF735FF0320FFF7E4FEEE
S31520000440BB1D1A78FB1D1B7811001800FFF7A2FFB1
S31520000450C046BD4602B080BD80B582B000AF020066
S31520000460FB1D1A70BB1D0A1C1A704020FFF7CCFE1C
S31520000470BB1D1B781800FFF715FF0120FFF7A6FE0E
S315200004800220FFF7C1FEBB1D1A78FB1D1B78110049
S315200004901800FFF77FFFC046BD4602B080BDC046AC
S315200004A080B582B000AFFB1D00221A7023E0FB1D31
S315200004B01B78482252421343DBB218211800FFF75B
S315200004C0ABFF18214020FFF7A7FF3B1D00221A8013
S315200004D008E018210020FFF7BFFF3B1D1A883B1DAF
S315200004E001321A803B1D1B883F2BF2D9FB1D1A783F
S315200004F0FB1D01321A70FB1D1B78072BD7D9C0466E
S31520000500BD4602B080BDC04680B500AF4020FFF793
S315200005105DFE0A20FFF732FE7820FFF775FE1E20CB
S31520000520FFF742FE2020FFF751FE6420FFF73CFE36
S3152000053018213E20FFF770FF18213F20FFF76CFFA0
S315200005401821C020FFF768FF18214020FFF764FF1D
S315200005501821B820FFF760FF0020FFF7A3FEC04652
S31520000560BD4680BD90B585B000AF040008001100DF
S31520000570BB1D221C1A803B1D021C1A80FB1C0A1C58
S315200005801A703B1D1B88013B002B00DA0733DB105A
S315200005901A000C23FB181A803B1D1B88013B594A65
S315200005A0134004D5013B0822524213430133072B43
S315200005B02CD89A00544BD3181B689F460F23FB1840
S315200005C001221A7022E00F23FB1802221A701DE066
S315200005D00F23FB1804221A7018E00F23FB18082299
S315200005E01A7013E00F23FB1810221A700EE00F2347
S315200005F0FB1820221A7009E00F23FB1840221A70DC
S3152000060004E00F23FB1880221A70C046FB1C1B78BF
S31520000610002B06D10F23FB180F22BA181278D243CB
S315200006201A70BB1D1B88402B09D90E23FB181022DC
S315200006301A70BB1DBA1D1288413A1A8008E00E2393
S31520000640FB1808221A70BB1DBA1D1288013A1A809F
S31520000650BB1D1B88DBB240221343DAB20E23FB18E4
S315200006601B7819001000FFF7D7FE0C23FB181B88F8
S31520000670DBB2482252421343DAB20E23FB181B7810
S3152000068019001000FFF7C8FE0B23FC180E23FB18D9
S315200006901B781800FFF738FE03002370BB1D1B884C
S315200006A0DBB240221343DAB20E23FB181B78190063
S315200006B01000FFF7B1FEFB1C1B78002B0AD00F237E
S315200006C0FB180F22B9180B22BA18097812780A4398
S315200006D01A7009E00F23FB180F22BA180B2179187C
S315200006E0127809780A401A700E23FB181A780F23FD
S315200006F0FB181B7811001800FFF7AEFEC046BD465A
S3152000070005B090BD07000080200A002080B584B087
S3152000071000AFF860B9607A60FB68BA685A60FB6817
S315200007207A689A60C046BD4604B080BD80B584B064
S3152000073000AF78600023FB6024E07B6819680823FB
S31520000740FB18FA680432042052008A1812181288FC
S315200007501A807B68DB689AB20823FB181B789BB249
S31520000760D31898B27B681B699AB20823FB185B786A
S315200007709BB2D3189BB201221900FFF7F3FEFB6848
S315200007800133FB607B681B681A68FB689A42D4D8E1
S31520000790C046BD4604B080BD80B584B000AF786049
S315200007A00023FB6024E07B6819680823FB18FA689D
S315200007B00432042052008A18121812881A807B6884
S315200007C0DB689AB20823FB181B789BB2D31898B221
S315200007D07B681B699AB20823FB185B789BB2D318F7
S315200007E09BB200221900FFF7BDFEFB680133FB60B8
S315200007F07B681B681A68FB689A42D4D8C046BD46F7
S3152000080004B080BD80B582B000AF78607B681800E8
S31520000810FFF7C2FF7B68DA687B685B68D2187B6863
S31520000820DA607B681A697B689B68D2187B681A61D4
S315200008307B68DB68002B08D17B685B6859427B6844
S315200008409A687B681800FFF761FF7B68DA687B6827
S315200008501B685B68D318802B08D97B685B68594274
S315200008607B689A687B681800FFF750FF7B681B69D6
S31520000870002B08D17B6859687B689B685A427B6845
S315200008801800FFF743FF7B681A697B681B689B6823
S31520000890D318802B08D97B6859687B689B685A4295
S315200008A07B681800FFF732FF7B681800FFF73EFFD2
S315200008B0C046BD4602B080BD80B582B000AF78602C
S315200008C07B68042B19D87B689A000E4BD3181B68BB
S315200008D09F460D4B10225A750FE00B4B20225A755E
S315200008E00BE0094B40225A7507E0074B80225A75C8
S315200008F003E0054B00225A75C046C046BD4602B0ED
S3152000090080BDC046400A0020000C024080B582B05F
S3152000091000AF124AFB1D527C1A70FB1D1B78082261
S31520000920134001D0042314E0FB1D1B78042213403E
S3152000093001D003230DE0FB1D1B780222134001D0BA
S31520000940022306E0FB1D1B780122134001D0012360
S31520000950FFE71800BD4602B080BDC046000C02402D
S3152000096080B582B000AF00237B6000233B6001236B
S315200009707B6016E07B681800FFF79EFFFFF7C6FF37
S3152000098003003B603B68002B08D07B68013B9A0044
S315200009903B68013BD318074AD35C06E07B680133EA
S315200009A07B607B68042BE5DDFF231800BD4602B083
S315200009B080BDC046100A00200C0000000400000084
S315200009C004000000000100020100010101020103F0
S315200009D002000201020202030301030200000000DA
S315200009E0000000000000000000000000B809002000
S315200009F000000000000000000100000001000000CF
S31520000A002D07002099070020050800200D0700204B
S31520000A100102030A0405060B0708090C0E000F0D38
S31520000A20BC050020C6050020D0050020DA050020E0
S31520000A30E4050020EE050020F8050020020600202F
S31520000A40F2080020D2080020DA080020E208002060
S30920000A50EA0800206A
S70520000000DA
