S01D00002E2F44656275672F67726170686963646973706C61792E73313990
S315200000000248854600F060F8FEE7C04600C00120A1
S3152000001080B500AF044B054A1A60034B034A9A6029
S31520000020C046BD4680BDC0460010024055555555B8
S3152000003080B582B000AF01237B6009E07B689BB26C
S3152000004001220A21180000F019FA7B6801337B602F
S315200000507B68802BF2D901237B6009E07B689BB209
S31520000060012219000A2000F009FA7B6801337B601F
S315200000707B68402BF2D9FA235B00180000F02CFB9A
S3152000008001237B6009E07B689BB200220A211800CD
S3152000009000F0F4F97B6801337B607B68802BF2D912
S315200000A001237B6009E07B689BB2002219000A20AD
S315200000B000F0E4F97B6801337B607B68402BF2D942
S315200000C0C046BD4602B080BD80B500AFFFF7A0FF99
S315200000D000F0A6F900F070F9FFF7AAFFC046BD466A
S315200000E080BDC04680B582B000AF0200FB1D1A70ED
S315200000F00A4A0A4B1B7DDBB204218B43DBB2137504
S315200001000649064B1B7DDAB2FB1D1B781343DBB277
S315200001100B75C046BD4602B080BDC04600100240E9
S3152000012080B582B000AF0200FB1D1A700C4A0C4B42
S315200001301B7DDBB204218B43DBB213750849084BC8
S315200001401B7DDBB25BB2FA1D127852B2D24352B299
S3152000015013405BB2DBB20B75C046BD4602B080BD14
S315200001600010024080B500AF4020FFF7BBFF104BC8
S31520000170104A1A600120FFF7D3FF0220FFF7B2FFD3
S3152000018000F072FA4020FFF7ADFF00F06DFA402034
S31520000190FFF7A8FF00F068FA054B5B7CDBB25BB289
S315200001A0002BEFDB024B044A1A60C046BD4680BDD9
S315200001B000100240555500005555555580B582B062
S315200001C000AF0200FB1D1A70FB1D1B78082B0FD0F9
S315200001D002DC002B05D01FE0102B10D0182B15D0D9
S315200001E01AE01020FFF79CFF0820FFF799FF13E085
S315200001F01020FFF795FF0820FFF774FF0CE008207A
S31520000200FFF78EFF1020FFF76DFF05E00820FFF7B0
S3152000021069FF1020FFF766FFC046BD4602B080BDCD
S3152000022080B584B000AF0200FB1D1A704020FFF796
S3152000023059FF1B4B1B4A1A600320FFF753FFFB1D78
S315200002401B781800FFF7BAFF00F00EFA4020FFF7E0
S3152000025049FF00F009FA124A0F23FB18527C1A7044
S315200002604020FFF75DFF0E4B0F4A1A60FB1D1B78DF
S31520000270082B05D10820FFF7A1FFFFF773FF08E041
S31520000280FB1D1B78102B04D11020FFF797FFFFF7DB
S3152000029069FF0F23FB181B781800BD4604B080BDEC
S315200002A000100240555500005555555580B582B071
S315200002B000AF0200FB1D1A70BB1D0A1C1A701B4AD8
S315200002C0FB1D1B785375BB1D1B781800FFF776FFA7
S315200002D000F0CAF94020FFF705FF00F0C5F94020DD
S315200002E0FFF71EFFBB1D1B780822134006D0BB1D3F
S315200002F01B781800FFF762FFFFF734FFBB1D1B7842
S315200003001022134004D01020FFF758FFFFF72AFFD2
S31520000310064B00225A754020FFF7E4FE0020FFF727
S315200003204DFFC046BD4602B080BDC046001002400B
S3152000033080B582B000AF0200FB1D1A70BB1D0A1CDF
S315200003401A704020FFF7ECFEBB1D1B781800FFF744
S3152000035035FF0320FFF7E4FEBB1D1A78FB1D1B7833
S3152000036011001800FFF7A2FFC046BD4602B080BDAF
S3152000037080B582B000AF0200FB1D1A70BB1D0A1C9F
S315200003801A704020FFF7CCFEBB1D1B781800FFF724
S3152000039015FF0120FFF7A6FE0220FFF7C1FEBB1DB9
S315200003A01A78FB1D1B7811001800FFF77FFFC04647
S315200003B0BD4602B080BDC04680B582B000AFFB1DF1
S315200003C000221A7023E0FB1D1B7848225242134359
S315200003D0DBB218211800FFF7ABFF18214020FFF7EA
S315200003E0A7FF3B1D00221A8008E018210020FFF7F6
S315200003F0BFFF3B1D1A883B1D01321A803B1D1B88FF
S315200004003F2BF2D9FB1D1A78FB1D01321A70FB1DFA
S315200004101B78072BD7D9C046BD4602B080BDC04643
S3152000042080B500AF4020FFF75DFE0A2000F03EF9C0
S315200004307820FFF775FE1E2000F04EF92020FFF7EA
S3152000044051FE642000F048F918213E20FFF770FF86
S3152000045018213F20FFF76CFF1821C020FFF768FF07
S3152000046018214020FFF764FF1821B820FFF760FF0E
S315200004700020FFF7A3FEC046BD4680BD90B585B0DF
S3152000048000AF040008001100BB1D221C1A803B1D72
S31520000490021C1A80FB1C0A1C1A703B1D1B88013B80
S315200004A0002B00DA0733DB101A000C23FB181A8006
S315200004B03B1D1B88013B594A134004D5013B0822AA
S315200004C0524213430133072B2CD89A00544BD3188E
S315200004D01B689F460F23FB1801221A7022E00F2368
S315200004E0FB1802221A701DE00F23FB1804221A7033
S315200004F018E00F23FB1808221A7013E00F23FB18AD
S3152000050010221A700EE00F23FB1820221A7009E021
S315200005100F23FB1840221A7004E00F23FB188022B9
S315200005201A70C046FB1C1B78002B06D10F23FB1824
S315200005300F22BA181278D2431A70BB1D1B88402B83
S3152000054009D90E23FB1810221A70BB1DBA1D12885A
S31520000550413A1A8008E00E23FB1808221A70BB1DA8
S31520000560BA1D1288013A1A80BB1D1B88DBB24022B5
S315200005701343DAB20E23FB181B7819001000FFF77D
S31520000580D7FE0C23FB181B88DBB2482252421343AA
S31520000590DAB20E23FB181B7819001000FFF7C8FEED
S315200005A00B23FC180E23FB181B781800FFF738FEC8
S315200005B003002370BB1D1B88DBB240221343DAB233
S315200005C00E23FB181B7819001000FFF7B1FEFB1C49
S315200005D01B78002B0AD00F23FB180F22B9180B22E9
S315200005E0BA18097812780A431A7009E00F23FB1803
S315200005F00F22BA180B217918127809780A401A7036
S315200006000E23FB181A780F23FB181B7811001800ED
S31520000610FFF7AEFEC046BD4605B090BD0700008080
S31520000620FC06002080B500AF0C4B00221A600C4B54
S315200006302A221A600B4B00221A60084B05221A60E8
S31520000640C046064B1A6880235B021340F9D0034B41
S3152000065000221A60C046BD4680BDC04610E000E0BC
S3152000066014E000E018E000E080B500AF0C4B00225B
S315200006701A600C4B54221A600B4B00221A60084B4E
S3152000068005221A60C046064B1A6880235B02134077
S31520000690F9D0034B00221A60C046BD4680BDC04635
S315200006A010E000E014E000E018E000E080B584B03F
S315200006B000AF78600023FB6004E0FFF7B3FFFB6820
S315200006C00133FB607B689A00FB689A42F5D2C046EC
S315200006D0BD4604B080BDC04680B582B000AF78600C
S315200006E002E00220FFF7E2FF7B685A1E7A60002BA9
S315200006F0F7D1C046BD4602B080BDC046D404002016
S31520000700DE040020E8040020F2040020FC0400207F
S3112000071006050020100500201A05002018
S70520000000DA
