S01A00002E2F44656275672F7379737469636B5F6972712E733139B2
S315200000000248854600F05CF8FEE7C04600C00120A5
S3152000001080B500AF084B00221A60084B2A221A60CE
S31520000020074B00221A60044B05221A60024B072256
S315200000301A60C046BD4680BD10E000E014E000E036
S3152000004018E000E080B582B000AF786008E0FFF7E6
S31520000050DFFF084B1B78012BFBD1064B00221A70C1
S315200000607B685A1E7A60002BF1D1C046BD4602B08D
S3152000007080BDC046E800002080B500AF044B0022BA
S315200000801A60044B01221A70C046BD4680BDC04688
S3152000009010E000E0E800002080B500AF044B054AE0
S315200000A01A60054B054ADA63C046BD4680BDC04688
S315200000B0000C02405555000000C0012079000020A8
S315200000C080B500AFFFF7E8FF064B00221A756420C3
S315200000D0FFF7B8FF034BFF221A756420FFF7B2FF24
S311200000E0F2E7C046000C024000000000C1
S70520000000DA
