S01A00002E2F44656275672F7379737469636B5F6972712E733139B2
S315200000000248854600F03EF8FEE7C04600C00120C3
S3152000001080B582B000AF786008E000F04BF8094B5D
S3152000002000221A70074B1B78002B05D17B685A1EBD
S315200000307A60002BF1D100E0C046C046BD4602B032
S3152000004080BDC0466C09002080B500AF024B01225E
S315200000501A70C046BD4680BD6C09002080B500AF31
S31520000060044B054A1A60054B054ADA63C046BD466D
S3152000007080BDC046000C02405555000000C001203E
S315200000804900002080B500AF084B00221A75084BA6
S315200000901800FFF7BDFF054BFF221A75044B180009
S315200000A0FFF7B6FFC046BD4680BDC046000C0240E5
S315200000B040420F0080B500AF0C4B00221A600C4B5B
S315200000C02A221A600B4B00221A60084B05221A605E
S315200000D0C046064B1A6880235B021340F9D0034BB7
S315200000E000221A60C046BD4680BDC04610E000E032
S315200000F014E000E018E000E080B500AF0C4B0022D1
S315200001001A600C4B54221A600B4B00221A60084BC3
S3152000011005221A60C046064B1A6880235B021340EC
S31520000120F9D0034B00221A60C046BD4680BDC046AA
S3152000013010E000E014E000E018E000E080B584B0B4
S3152000014000AF78600023FB6004E0FFF7B3FFFB6895
S315200001500133FB607B689A00FB689A42F5D2C04661
S31520000160BD4604B080BDC04680B582B000AF786081
S3152000017004E0FA239B001800FFF7E0FF7B685A1E75
S315200001807A60002BF5D1C046BD4602B080BDC04680
S3152000019080B584B000AF0200FB1D1A70124A0F23EF
S315200001A0FB18127D1A700F23FB180F22BA1812782B
S315200001B004218A431A70FB1D1B785BB204229343E9
S315200001C05AB20F23FB181B785BB213435AB20F2384
S315200001D0FB181A70044A0F23FB181B781375C046A8
S315200001E0BD4604B080BDC0460010024080B584B034
S315200001F000AF0200FB1D1A70114A0F23FB18127D57
S315200002001A700F23FB180F22BA18127804218A437A
S315200002101A70FB1D1B785BB2DB435BB20F22BA1848
S31520000220127852B213405AB20F23FB181A70044A9E
S315200002300F23FB181B781375C046BD4604B080BD3E
S315200002400010024080B582B000AF0200FB1D1A707C
S31520000250FB1D1B78082B0CD002DC002B05D01AE0E6
S31520000260102B0DD0182B12D015E01820FFF7BEFF4B
S3152000027011E00820FFF78CFF1020FFF7B7FF0AE0F8
S315200002800820FFF7B3FF1020FFF782FF03E01820B6
S31520000290FFF77EFFC046C046BD4602B080BDC046C1
S315200002A080B582B000AF4020FFF7A0FF144B154A5F
S315200002B01A600120FFF79AFF0220FFF769FFFFF778
S315200002C01BFF4020FFF764FFFFF716FF0C4B5B7CFC
S315200002D0DAB2FB1D7F218A431A704020FFF786FF82
S315200002E0FFF70AFFFB1D1B78002B00D0E9E7C0466D
S315200002F0034B054A1A60C046BD4602B080BDC046C3
S3152000030000100240555500005555555580B584B00E
S3152000031000AF0200FB1D1A704020FFF767FF1B4B42
S315200003201B4A1A600320FFF733FFFB1D1B781800BA
S31520000330FFF788FFFFF7E0FE4020FFF729FFFFF7D2
S31520000340DBFE124A0F23FB18527C1A704020FFF75F
S315200003504DFF0E4B0F4A1A60FB1D1B78082B04D14C
S315200003600820FFF76FFFFFF79BFFFB1D1B78102B65
S3152000037004D11020FFF766FFFFF792FF0F23FB182B
S315200003801B781800BD4604B080BDC0460010024050
S31520000390555500005555555580B582B000AF020021
S315200003A0FB1D1A70BB1D0A1C1A701A4AFB1D1B78EE
S315200003B05375BB1D1B781800FFF744FFFFF79CFE03
S315200003C04020FFF7E5FEFFF797FE4020FFF70EFFE0
S315200003D0BB1D1B780822134004D00820FFF732FFEC
S315200003E0FFF75EFFBB1D1B781022134004D01020A0
S315200003F0FFF728FFFFF754FF064B00225A754020CF
S31520000400FFF7C6FE0020FFF71DFFC046BD4602B01F
S3152000041080BDC0460010024080B582B000AF020009
S31520000420FB1D1A70BB1D0A1C1A704020FFF7DEFE4A
S31520000430BB1D1B781800FFF705FF0320FFF7D6FE2C
S31520000440BB1D1A78FB1D1B7811001800FFF7A4FFAF
S31520000450C046BD4602B080BD80B582B000AF020066
S31520000460FB1D1A70BB1D0A1C1A704020FFF7BEFE2A
S31520000470BB1D1B781800FFF7E5FE0120FFF788FE5D
S315200004800220FFF7B3FEBB1D1A78FB1D1B78110057
S315200004901800FFF781FFC046BD4602B080BDC046AA
S315200004A080B582B000AF0200FB1D1A70FB1D1B78C1
S315200004B01800FFF72BFFFB1D1B781800FFF726FF00
S315200004C003001800BD4602B080BDC04680B500AF0F
S315200004D04020FFF75DFE0A20FFF730FE7820FFF769
S315200004E085FE1E20FFF740FE2020FFF751FE6420E8
S315200004F0FFF73AFE18213E20FFF78EFF18213F20F6
S31520000500FFF78AFF1821C020FFF786FF1821402019
S31520000510FFF782FF1821B820FFF77EFF0020FFF7A4
S3152000052091FEC046BD4680BD80B582B000AFBB1DE2
S3152000053000221A7023E0BB1D1B7848225242134327
S31520000540DBB218211800FFF767FF18214020FFF7BC
S3152000055063FFFB1D00221A7008E018210020FFF718
S315200005607BFFFB1D1A78FB1D01321A70FB1D1B78C1
S315200005703F2BF2D9BB1D1A78BB1D01321A70BB1D49
S315200005801B78072BD7D9C046BD4602B080BDC046D2
S3152000059090B589B000AFF860B960FB1D1A70FB6892
S315200005A0002B00D1B3E0BB68002B00D1AFE0FB6885
S315200005B0802B00D9ABE0BB68402B00D9A7E0BB68F5
S315200005C0013BDB08BB61BB68013B07221340072BBD
S315200005D02CD89A00504BD3181B689F461F23FB1814
S315200005E001221A7022E01F23FB1802221A701DE036
S315200005F01F23FB1804221A7018E01F23FB18082259
S315200006001A7013E01F23FB1810221A700EE01F2306
S31520000610FB1820221A7009E01F23FB1840221A70AB
S3152000062004E01F23FB1880221A70C046FB1D1B788E
S31520000630002B06D11F23FB181F22BA181278D2438B
S315200006401A70FB68402B07D91E23FB1810221A703C
S31520000650FB68413BFB6006E01E23FB1808221A704C
S31520000660FB68013BFB60FB68DBB240221343DAB236
S315200006701E23FB181B7819001000FFF7CDFEBB695F
S315200006805BB24822524213435BB2DAB21E23FB18F6
S315200006901B7819001000FFF7BFFE1723FC181E2336
S315200006A0FB181B781800FFF7FBFE03002370FB687E
S315200006B0DBB240221343DAB21E23FB181B78190043
S315200006C01000FFF7A9FEFB1D1B78002B0AD01F2365
S315200006D0FB181F22B9181722BA18097812780A436C
S315200006E01A7009E01F23FB181F22BA181721791840
S315200006F0127809780A401A701E23FB181A781F23CD
S31520000700FB181B7811001800FFF7A6FE00E0C04674
S31520000710BD4609B090BDC0468009002080B582B094
S3152000072000AF78607B68042B19D87B689A000E4B43
S31520000730D3181B689F460D4B10225A750FE00B4BA2
S3152000074020225A750BE0094B40225A7507E0074BC9
S3152000075080225A7503E0054B00225A75C046C046D2
S31520000760BD4602B080BDC046A0090020000C024054
S3152000077080B582B000AF124AFB1D527C1A70FB1D59
S315200007801B780822134001D0042314E0FB1D1B789C
S315200007900422134001D003230DE0FB1D1B78022207
S315200007A0134001D0022306E0FB1D1B7801221340D3
S315200007B001D00123FFE71800BD4602B080BDC04628
S315200007C0000C024080B582B000AF00237B6000237E
S315200007D03B6001237B6016E07B681800FFF79EFFD5
S315200007E0FFF7C6FF03003B603B68002B08D07B6801
S315200007F0013B9A003B68013BD318074AD35C06E0CD
S315200008007B6801337B607B68042BE5DDFF231800C2
S31520000810BD4602B080BDC0467009002080B584B0B8
S3152000082000AFF860B9607A60BA68FB685A607A6887
S31520000830FB689A60C046BD4604B080BD80B584B0D2
S3152000084000AF78600023FB601EE07B6819680823F0
S31520000850FB18FA680432042052008A1812181288EB
S315200008601A807B68DB680822BA18127898187B6889
S315200008701B690822BA1852789B1801221900FFF723
S3152000088087FEFB680133FB607B681B681A68FB6880
S315200008909A42DAD8C046BD4604B080BD80B584B041
S315200008A000AF78600023FB601EE07B681968082390
S315200008B0FB18FA680432042052008A18121812888B
S315200008C01A807B68DB680822BA18127898187B6829
S315200008D01B690822BA1852789B1800221900FFF7C4
S315200008E057FEFB680133FB607B681B681A68FB6850
S315200008F09A42DAD8C046BD4604B080BD80B582B0E3
S3152000090000AF78607B681800FFF7C8FF7B68DA685D
S315200009107B685B68D2187B68DA607B681A697B68BB
S315200009209B68D2187B681A617B68DB68002B03D032
S315200009307B68DB68802B04D97B685B685A427B68BE
S315200009405A607B681B69002B03D07B681B69402B90
S3152000095004D97B689B685A427B689A607B6818003A
S31520000960FFF76CFFC046BD4602B080BD0000000008
S315200009700102030A0405060B0708090C0E000F0DD9
S31520000980DC050020E6050020F0050020FA05002001
S31520000990040600200E06002018060020220600204D
S315200009A056070020360700203E0700204607002075
S309200009B04E070020A8
S70520000000DA
