S02000002E2F44656275672F666C69705F666C6F705F6972715F61636B2E7331396D
S315200000000248854600F0C0F8FEE7C04600C0012041
S3152000001080B582B000AF0200FB1D1A701149114B4A
S315200000201B7DDBB25BB2FA1D1278102090400200D5
S3152000003052B213405BB2DBB20B750A49094B1B7DEA
S31520000040DBB25BB2FA1D127810209040020052B249
S31520000050D24352B213405BB2DBB20B75C046BD46EB
S3152000006002B080BD0010024080B582B000AF1B4AAE
S31520000070FB1D127C1A70FB1D1B78012B08D100205A
S31520000080FFF7C6FF164B1B8801339AB2144B1A8012
S31520000090FB1D1B78022B05D10120FFF7B9FF104B62
S315200000A000221A80FB1D1B78042B0DD10220FFF79E
S315200000B0AFFF0C4B1B78002B03D10A4BFF221A7083
S315200000C002E0084B00221A70074B074A52690821A2
S315200000D00A435A61C046BD4602B080BD00100240A8
S315200000E0B4010020B6010020003C014080B500AFDD
S315200000F0164B164A92681205120D9A60134B134A34
S3152000010092688021C9010A439A60114B104A1268ED
S3152000011008210A431A600E4B0D4AD26808210A4369
S31520000120DA600C4B0C4A5A660C4B0C4A126880213A
S3152000013089000A431A600A4B094A12688021C901BC
S315200001400A431A60C046BD4680BDC04600380140FD
S31520000150003C014000C001206900002000E100E0D1
S315200001604438024080B500AF044B054A1A60054B5F
S31520000170AA22D2011A60C046BD4680BD000C0240AC
S31520000180555555550010024080B500AFFFF7EAFFE0
S31520000190FFF7ACFF044A054B1B88DBB21375024AF6
S315200001A0034B1B785375F5E7000C0240B401002081
S30D200001B0B6010020000000004A
S70520000000DA
