S01D00002E2F44656275672F554152545F4D6573736167696E672E7331392B
S315200000000248854600F0F6F8FEE7C04600C001200B
S3152000001080B584B000AFF860B9607A603B607B68D9
S31520000020DAB2FB681A703B68DAB2FB685A70FB6872
S31520000030BA685A60C046BD4604B080BD80B58AB055
S3152000004000AFF860B9607A603B60FB681B780722D6
S315200000501340DBB2002B05D1FB681B78DB08DBB233
S31520000060BB6105E0FB681B78DB08DBB20133BB61B3
S3152000007000237B6239E000233B622FE0FB685B684C
S315200000807A6AB96951433A6A8A189A181723FB186B
S3152000009012781A700023FB611AE01723FB181A78CE
S315200000A0FB691A411300012213400ED03B6ADA0085
S315200000B0FB69D218BB68D318581C7A6A7B68D31898
S315200000C001333A68190000F0A7FDFB690133FB6193
S315200000D0FB69072BE1DD3B6A01333B623A6ABB6968
S315200000E09A42CBDB7B6A01337B62FB685B781A0022
S315200000F07B6A9A42BFDCC046BD460AB080BDC04678
S3152000010090B583B000AFBB1D01221A8000210020CC
S3152000011000F0AAF97C1D00F035FA0300237004E0F4
S315200001207C1D00F02FFA030023707B1D1B78002B0B
S31520000130F6D001220121012000F06EFD00F058FDCD
S315200001401F48012300220021FFF778FFFA23DB0056
S315200001501900012000F050F9BB1D1B88142B0BD869
S31520000160BB1D1B880121180000F07EF97B1D1B7822
S31520000170180000F0A1F90FE0BB1D1B88142B0BD92A
S31520000180BB1D1B88143B0221180000F06DF97B1D56
S315200001901B78180000F090F97C1D00F0F3F903009D
S315200001A023707B1D1B782F2B05D0BB1D1A88BB1DEA
S315200001B001321A80D0E7C046C046BD4603B090BD86
S315200001C0A40E002080B500AF074B084A1A60064BE4
S315200001D000229A80044B054A9A60034B044ADA604F
S315200001E0C046BD4680BDC0460010024055555555F7
S315200001F00000555580B500AF00F07AF91049114836
S315200002003D235022FFF704FFFFF7DCFF00F012F931
S3152000021000F0BAFC00F0F6FCFFF772FFFA23DB00D1
S31520000220180000F02BFA00220121012000F0F4FC36
S315200002300448002300220021FFF700FFECE7C04618
S31520000240AC0E0020A40E002080B582B000AF0200C4
S31520000250FB1D1A700749074B1B7DDAB2FB1D1B7865
S315200002601343DBB204221343DBB20B75C046BD46F3
S3152000027002B080BD0010024080B582B000AF0200FF
S31520000280FB1D1A700A490A4B1B7DDBB25BB2FA1DB5
S31520000290127852B2D24352B20420024352B21340D1
S315200002A05BB2DBB20B75C046BD4602B080BDC04610
S315200002B00010024080B582B000AF0200FB1D1A700C
S315200002C04020FFF7C1FF064AFB1D1B78537500F03F
S315200002D097F94020FFF7D0FFC046BD4602B080BD4B
S315200002E00010024080B582B000AF0200FB1D1A70DC
S315200002F00320FFF7C1FFFB1D1B781800FFF7DAFF6D
S31520000300C046BD4602B080BD80B582B000AF0200B7
S31520000310FB1D1A700120FFF797FF0220FFF7ACFFA5
S31520000320FB1D1B781800FFF7C5FFC046BD4602B06F
S3152000033080BDC04680B582B000AF4020FFF784FF65
S3152000034000F05EF900F05CF9064AFB1D527C1A703B
S315200003504020FFF791FFFB1D1B781800BD4602B019
S3152000036080BDC0460010024090B583B000AF0E4B52
S315200003700D4A12681204120C1A600120FFF77CFF46
S315200003800220FFF761FFFC1DFFF7D4FF0300237057
S31520000390054B054A126805490A431A60FB1D1B785E
S315200003A01800BD4603B090BD001002400000555510
S315200003B090B583B000AF0E4B0D4A12681204120C92
S315200003C01A600120FFF740FF0220FFF73DFFFC1DCA
S315200003D0FFF7B0FF03002370054B054A1268054955
S315200003E00A431A60FB1D1B781800BD4603B090BD5A
S315200003F0001002400000555580B582B000AF0200C3
S315200004003960FB1D1A70C046FFF7AEFF03005BB2D2
S31520000410002BF9DB082000F01BF9FB1D1B781800C8
S31520000420FFF760FF3B68180000F012F9C046BD4692
S3152000043002B080BD80B500AF0A4B0A4A1268182167
S315200004400A431A6032213820FFF7D6FF32210F20C7
S31520000450FFF7D2FF32210620FFF7CEFFC046BD466A
S3152000046080BDC0463038024080B584B000AF02005F
S31520000470FB1D1A70BB1D0A1C1A700F23FB18FA1DD0
S315200004801278013A1A70BB1D1B78022B06D10F2356
S31520000490FB180F22BA18127840321A700F23FB1855
S315200004A01B78802252421343DBB21800FFF71AFF53
S315200004B0C046BD4604B080BD80B582B000AF020004
S315200004C0FB1D1A70C046FFF74FFF03005BB2002BDF
S315200004D0F9DB082000F0BCF8FB1D1B781800FFF79D
S315200004E013FF2B2000F0B4F8C046BD4602B080BDF5
S315200004F080B500AF054B064A1A81044B00221A82AA
S31520000500024B044A9A81C046BD4680BD0010014078
S31520000510D90200000C20000080B500AF074B1B88D5
S315200005209BB21A002023134001D1002303E0034B82
S315200005309B889BB2DBB21800BD4680BD00100140EF
S3152000054080B582B000AF0200FB1D1A700C4AFB1D5D
S315200005501B789BB2938000E0C046094B1B889BB258
S315200005601A0080231340F7D0FB1D1B780A2B02D1DB
S315200005700D20FFF7E5FFC046BD4602B080BDC04650
S315200005800010014090B583B000AFFC1DFFF7C4FFFB
S3152000059003002370FB1D1B78002BF6D0FB1D1B7858
S315200005A01800BD4603B090BD90B583B000AFBB1D0B
S315200005B000221A8017E07C1DFFF7E4FF030023705A
S315200005C0C0467B1D00221A70BB1D1B880B4A791D55
S315200005D00978D1547B1D1B787D2B09D0BB1D1A8829
S315200005E0BB1D01321A80BB1D1B88FF2BE3D900E0FF
S315200005F0C046024B1800BD4603B090BDA40D002096
S3152000060080B500AF0C4B00221A600B4B2A22013A10
S315200006105A60094B00229A60074B05221A60C04691
S31520000620054B1A6880235B021340F9D0024B002247
S315200006301A60C046BD4680BD10E000E080B500AF20
S31520000640FFF7DEFFFFF7DCFFC046BD4680BDC04694
S3152000065080B582B000AF786007E0FFF7D1FFFFF7E3
S31520000660CFFFFFF7CDFFFFF7CBFF7B685A1E7A60DF
S31520000670002BF2D1C046BD4602B080BD80B582B007
S3152000068000AF786002E00220FFF7E2FF7B685A1E87
S315200006907A60002BF7D1C046BD4602B080BDC04669
S315200006A080B584B000AFF860B9607A60BA68FB683C
S315200006B05A607A68FB689A60C046BD4604B080BD21
S315200006C080B584B000AF78600023FB601EE07B68B5
S315200006D019680823FB18FA680432042052008A1885
S315200006E0121812881A807B68DB680822BA181278DA
S315200006F098187B681B690822BA1852789B18012221
S31520000700190000F089FAFB680133FB607B681B68DF
S315200007101A68FB689A42DAD8C046BD4604B080BD46
S3152000072080B584B000AF78600023FB601EE07B6854
S3152000073019680823FB18FA680432042052008A1824
S31520000740121812881A807B68DB680822BA18127879
S3152000075098187B681B690822BA1852789B180022C1
S31520000760190000F059FAFB680133FB607B681B68AF
S315200007701A68FB689A42DAD8C046BD4604B080BDE6
S3152000078080B582B000AF78607B681800FFF7C8FF9D
S315200007907B68DA687B685B68D2187B68DA607B687E
S315200007A01A697B689B68D2187B681A617B68DB684C
S315200007B0002B03D07B68DB68802B04D97B685B68C1
S315200007C05A427B685A607B681B69002B03D07B6882
S315200007D01B69402B04D97B689B685A427B689A60C8
S315200007E07B681800FFF76CFFC046BD4602B080BD8F
S315200007F080B584B000AF0200FB1D1A70124A0F2389
S31520000800FB18127D1A700F23FB180F22BA181278C4
S3152000081004218A431A70FB1D1B785BB20422934382
S315200008205AB20F23FB181B785BB213435AB20F231D
S31520000830FB181A70044A0F23FB181B781375C04641
S31520000840BD4604B080BDC0460010024080B584B0CD
S3152000085000AF0200FB1D1A70114A0F23FB18127DF0
S315200008601A700F23FB180F22BA18127804218A4314
S315200008701A70FB1D1B785BB2DB435BB20F22BA18E2
S31520000880127852B213405AB20F23FB181A70044A38
S315200008900F23FB181B781375C046BD4604B080BDD8
S315200008A00010024080B582B000AF0200FB1D1A7016
S315200008B0FB1D1B78082B0CD002DC002B05D01AE080
S315200008C0102B0DD0182B12D015E01820FFF7BEFFE5
S315200008D011E00820FFF78CFF1020FFF7B7FF0AE092
S315200008E00820FFF7B3FF1020FFF782FF03E0182050
S315200008F0FFF77EFFC046C046BD4602B080BDC0465B
S3152000090080B582B000AF4020FFF7A0FF144B154AF8
S315200009101A600120FFF79AFF0220FFF769FFFFF711
S315200009208DFE4020FFF764FFFFF788FE0C4B5B7CB3
S31520000930DAB2FB1D7F218A431A704020FFF786FF1B
S31520000940FFF77CFEFB1D1B78002B00D0E9E7C04695
S31520000950034B054A1A60C046BD4602B080BDC0465C
S3152000096000100240555500005555555580B584B0A8
S3152000097000AF0200FB1D1A704020FFF767FF1B4BDC
S315200009801B4A1A600320FFF733FFFB1D1B78180054
S31520000990FFF788FFFFF752FE4020FFF729FFFFF7FA
S315200009A04DFE124A0F23FB18527C1A704020FFF787
S315200009B04DFF0E4B0F4A1A60FB1D1B78082B04D1E6
S315200009C00820FFF76FFFFFF79BFFFB1D1B78102BFF
S315200009D004D11020FFF766FFFFF792FF0F23FB18C5
S315200009E01B781800BD4604B080BDC04600100240EA
S315200009F0555500005555555580B582B000AF0200BB
S31520000A00FB1D1A70BB1D0A1C1A701A4AFB1D1B7887
S31520000A105375BB1D1B781800FFF744FFFFF70EFE2A
S31520000A204020FFF7E5FEFFF709FE4020FFF70EFF07
S31520000A30BB1D1B780822134004D00820FFF732FF85
S31520000A40FFF75EFFBB1D1B781022134004D0102039
S31520000A50FFF728FFFFF754FF064B00225A75402068
S31520000A60FFF7C6FE0020FFF71DFFC046BD4602B0B9
S31520000A7080BDC0460010024080B582B000AF0200A3
S31520000A80FB1D1A70BB1D0A1C1A704020FFF7DEFEE4
S31520000A90BB1D1B781800FFF705FF0320FFF7D6FEC6
S31520000AA0BB1D1A78FB1D1B7811001800FFF7A4FF49
S31520000AB0C046BD4602B080BD80B582B000AF020000
S31520000AC0FB1D1A70BB1D0A1C1A704020FFF7BEFEC4
S31520000AD0BB1D1B781800FFF7E5FE0120FFF788FEF7
S31520000AE00220FFF7B3FEBB1D1A78FB1D1B781100F1
S31520000AF01800FFF781FFC046BD4602B080BDC04644
S31520000B0080B582B000AF0200FB1D1A70FB1D1B785A
S31520000B101800FFF72BFFFB1D1B781800FFF726FF99
S31520000B2003001800BD4602B080BDC04680B500AFA8
S31520000B304020FFF75DFE0A20FFF78AFD7820FFF7A9
S31520000B4085FE1E20FFF79AFD2020FFF751FE642028
S31520000B50FFF794FD18213E20FFF78EFF18213F2036
S31520000B60FFF78AFF1821C020FFF786FF18214020B3
S31520000B70FFF782FF1821B820FFF77EFF0020FFF73E
S31520000B8091FEC046BD4680BD80B582B000AFBB1D7C
S31520000B9000221A7023E0BB1D1B78482252421343C1
S31520000BA0DBB218211800FFF767FF18214020FFF756
S31520000BB063FFFB1D00221A7008E018210020FFF7B2
S31520000BC07BFFFB1D1A78FB1D01321A70FB1D1B785B
S31520000BD03F2BF2D9BB1D1A78BB1D01321A70BB1DE3
S31520000BE01B78072BD7D9C046BD4602B080BDC0466C
S31520000BF080B500AF18213F20FFF73EFFC046BD4617
S31520000C0080BDC04680B500AF18213E20FFF734FFD7
S31520000C10C046BD4680BDC04690B589B000AFF860DD
S31520000C20B960FB1D1A70FB68002B00D1B3E0BB68CE
S31520000C30002B00D1AFE0FB68802B00D9ABE0BB686E
S31520000C40402B00D9A7E0BB68013BDB08BB61BB6832
S31520000C50013B07221340072B2CD89A00504BD31860
S31520000C601B689F461F23FB1801221A7022E01F23B0
S31520000C70FB1802221A701DE01F23FB1804221A708B
S31520000C8018E01F23FB1808221A7013E01F23FB18F5
S31520000C9010221A700EE01F23FB1820221A7009E07A
S31520000CA01F23FB1840221A7004E01F23FB18802202
S31520000CB01A70C046FB1D1B78002B06D11F23FB187C
S31520000CC01F22BA181278D2431A70FB68402B07D914
S31520000CD01E23FB1810221A70FB68413BFB6006E0BE
S31520000CE01E23FB1808221A70FB68013BFB60FB6879
S31520000CF0DBB240221343DAB21E23FB181B781900FD
S31520000D001000FFF7B9FEBB695BB24822524213437B
S31520000D105BB2DAB21E23FB181B7819001000FFF70E
S31520000D20ABFE1723FC181E23FB181B781800FFF7B1
S31520000D30E7FE03002370FB68DBB240221343DAB2DE
S31520000D401E23FB181B7819001000FFF795FEFB1DCC
S31520000D501B78002B0AD01F23FB181F22B918172235
S31520000D60BA18097812780A431A7009E01F23FB186B
S31520000D701F22BA1817217918127809780A401A7092
S31520000D801E23FB181A781F23FB181B781100180046
S31520000D90FFF792FE00E0C046BD4609B090BDC046B2
S31520000DA014110020000000000000000000000000D8
S31520000DB0000000000000000000000000000000000D
S31520000DC000000000000000000000000000000000FD
S31520000DD000000000000000000000000000000000ED
S31520000DE000000000000000000000000000000000DD
S31520000DF000000000000000000000000000000000CD
S31520000E0000000000000000000000000000000000BC
S31520000E1000000000000000000000000000000000AC
S31520000E20000000000000000000000000000000009C
S31520000E30000000000000000000000000000000008C
S31520000E40000000000000000000000000000000007C
S31520000E50000000000000000000000000000000006C
S31520000E60000000000000000000000000000000005C
S31520000E70000000000000000000000000000000004C
S31520000E80000000000000000000000000000000003C
S31520000E90000000000000000000000000000000002C
S31520000EA0000000000000000000000000FFFFFFFF20
S31520000EB0FFFFFFFFFFFFFFFFFFFFFFFFFFFFFFFF1C
S31520000EC0FFFFFFFFFFFFFFFFFFFFFFFFFFFFFFFF0C
S31520000ED0FFFFFFFFFFFFFFFFFFFFFFFFFFFFFFFFFC
S31520000EE0FFFFFFFFFFFFFFFFFFFFFFFFFFFFFFFFEC
S31520000EF0FFFFFF0F000000000000F0FFFF1F0000B3
S31520000F0000000000F8FFFF3F000000000000FCFF8B
S31520000F10FF7F000000000000FEFFFFFF0000000032
S31520000F200000FFFFFFFF010000000080FFFFFFFF22
S31520000F300300000000C0FFFEFFFE0700000000E0E7
S31520000F407FFEFFFC0F00000000F03FFEFFF81F00B1
S31520000F50000000F81FFEFFF03F00000000FC0FFE1F
S31520000F60FFE07F00000000FE07FEFFC0FF0000003C
S31520000F7000FF03FEFF80FF01000080FF01FEFF004F
S31520000F80FF030000C0FF00FEFF00FE070000E07F19
S31520000F9000FEFF00FC0F0000F03F00FEFF00F81FE0
S31520000FA00000F81F00FEFF00F03F0000FC0F00FECF
S31520000FB0FF00E07F0000FE0700FEFF00C0FF0000EC
S31520000FC0FF0300FEFF0080FF0180FF0100FEFF00FF
S31520000FD000FF03C0FF0000FEFF0000FE07E07F00C9
S31520000FE000FEFF0000FF0FF0FF0000FEFF0080FF65
S31520000FF01FF8FF0100FEFF00C0FF3FFCFF0300FEBD
S31520001000FF00E0FFFFFFFF0700FEFF00F0FFFFFFEE
S31520001010FF0F00FEFF00F89FFFFFF91F00FEFF00F5
S31520001020FC0FFFFFF03F00FEFF00FE07FE7FE07F84
S3152000103000FEFF00FF03FC3FC0FF00FEFF80FF0114
S31520001040F00F80FF01FEFFC0FF00C00300FF03FE7C
S31520001050FFE07F00000000FE07FEFFF03F000000DB
S3152000106000FC0FFEFFF81F00000000F81FFEFFFC2B
S315200010700F00000000F03FFEFFFE0700000000E02A
S315200010807FFEFFFF0300000000C0FFFEFFFF010000
S3152000109000000080FFFFFFFF000000000000FFFFB0
S315200010A0FF7F000000000000FEFFFF3F0000000061
S315200010B00000FCFFFF1F000000000000F8FFFF0FEC
S315200010C0000000000000F0FFFFFFFFFFFFFFFFFF13
S315200010D0FFFFFFFFFFFFFFFFFFFFFFFFFFFFFFFFFA
S315200010E0FFFFFFFFFFFFFFFFFFFFFFFFFFFFFFFFEA
S315200010F0FFFFFFFFFFFFFFFFFFFFFFFFFFFFFFFFDA
S31520001100FFFFFFFFFFFFFFFFFFFFFFFFFFFF0000C7
S315200011102A000000640C00206E0C0020780C0020B1
S31520001120820C00208C0C0020960C0020A00C0020A5
S30920001130AA0C0020BF
S70520000000DA
